{
  "_format": "hh-sol-artifact-1",
  "contractName": "WavePortal",
  "sourceName": "contracts/WavePortal.sol",
  "abi": [
    {
      "inputs": [],
      "stateMutability": "payable",
      "type": "constructor"
    },
    {
      "anonymous": false,
      "inputs": [
        {
          "indexed": true,
          "internalType": "address",
          "name": "from",
          "type": "address"
        },
        {
          "indexed": false,
          "internalType": "uint256",
          "name": "timestamp",
          "type": "uint256"
        },
        {
          "indexed": false,
          "internalType": "string",
          "name": "message",
          "type": "string"
        }
      ],
      "name": "NewWave",
      "type": "event"
    },
    {
      "inputs": [],
      "name": "getAllWaves",
      "outputs": [
        {
          "components": [
            {
              "internalType": "address",
              "name": "senderAddress",
              "type": "address"
            },
            {
              "internalType": "uint256",
              "name": "timestamp",
              "type": "uint256"
            },
            {
              "internalType": "string",
              "name": "message",
              "type": "string"
            }
          ],
          "internalType": "struct WavePortal.Wave[]",
          "name": "",
          "type": "tuple[]"
        }
      ],
      "stateMutability": "view",
      "type": "function"
    },
    {
      "inputs": [],
      "name": "getTotalWaves",
      "outputs": [
        {
          "internalType": "uint256",
          "name": "",
          "type": "uint256"
        }
      ],
      "stateMutability": "view",
      "type": "function"
    },
    {
      "inputs": [
        {
          "internalType": "address",
          "name": "",
          "type": "address"
        }
      ],
      "name": "lastSeenAt",
      "outputs": [
        {
          "internalType": "uint256",
          "name": "",
          "type": "uint256"
        }
      ],
      "stateMutability": "view",
      "type": "function"
    },
    {
      "inputs": [
        {
          "internalType": "string",
          "name": "_message",
          "type": "string"
        }
      ],
      "name": "wave",
      "outputs": [],
      "stateMutability": "nonpayable",
      "type": "function"
    }
  ],
  "bytecode": "0x6080604052620000336040518060800160405280604a815260200162001401604a91396200005b60201b620006431760201c565b60644442620000439190620001a8565b6200004f919062000245565b600181905550620002ec565b620000fb8160405160240162000072919062000168565b6040516020818303038152906040527f41304fac000000000000000000000000000000000000000000000000000000007bffffffffffffffffffffffffffffffffffffffffffffffffffffffff19166020820180517bffffffffffffffffffffffffffffffffffffffffffffffffffffffff8381831617835250505050620000fe60201b60201c565b50565b60008151905060006a636f6e736f6c652e6c6f679050602083016000808483855afa5050505050565b600062000134826200018c565b62000140818562000197565b9350620001528185602086016200020f565b6200015d81620002db565b840191505092915050565b6000602082019050818103600083015262000184818462000127565b905092915050565b600081519050919050565b600082825260208201905092915050565b6000620001b58262000205565b9150620001c28362000205565b9250827fffffffffffffffffffffffffffffffffffffffffffffffffffffffffffffffff03821115620001fa57620001f96200027d565b5b828201905092915050565b6000819050919050565b60005b838110156200022f57808201518184015260208101905062000212565b838111156200023f576000848401525b50505050565b6000620002528262000205565b91506200025f8362000205565b925082620002725762000271620002ac565b5b828206905092915050565b7f4e487b7100000000000000000000000000000000000000000000000000000000600052601160045260246000fd5b7f4e487b7100000000000000000000000000000000000000000000000000000000600052601260045260246000fd5b6000601f19601f8301169050919050565b61110580620002fc6000396000f3fe608060405234801561001057600080fd5b506004361061004c5760003560e01c8063449d46c01461005157806373895bf71461006d5780639a2cdc081461009d578063bd43a908146100bb575b600080fd5b61006b60048036038101906100669190610986565b6100d9565b005b6100876004803603810190610082919061095d565b6104d1565b6040516100949190610cf3565b60405180910390f35b6100a56104e9565b6040516100b29190610cf3565b60405180910390f35b6100c36104f2565b6040516100d09190610bef565b60405180910390f35b42601e600360003373ffffffffffffffffffffffffffffffffffffffff1673ffffffffffffffffffffffffffffffffffffffff168152602001908152602001600020546101269190610e05565b10610166576040517f08c379a000000000000000000000000000000000000000000000000000000000815260040161015d90610c93565b60405180910390fd5b42600360003373ffffffffffffffffffffffffffffffffffffffff1673ffffffffffffffffffffffffffffffffffffffff1681526020019081526020016000208190555060016000808282546101bc9190610e05565b925050819055506102026040518060400160405280601481526020017f25732068617320776176656420617420796f7520000000000000000000000000815250336106dc565b600260405180606001604052803373ffffffffffffffffffffffffffffffffffffffff16815260200142815260200183815250908060018154018082558091505060019003906000526020600020906003020160009091909190915060008201518160000160006101000a81548173ffffffffffffffffffffffffffffffffffffffff021916908373ffffffffffffffffffffffffffffffffffffffff1602179055506020820151816001015560408201518160020190805190602001906102cb92919061083d565b505050606460015442446102df9190610e05565b6102e99190610e05565b6102f39190610f3c565b60018190555061033a6040518060400160405280600e81526020017f47656e6572617465642023203d3e000000000000000000000000000000000000815250600154610778565b60326001541161047e576103836040518060400160405280601581526020017f5468697320257320776f6e20746865207072697a650000000000000000000000815250336106dc565b60006305f5e1009050478111156103cf576040517f08c379a00000000000000000000000000000000000000000000000000000000081526004016103c690610cb3565b60405180910390fd5b60003373ffffffffffffffffffffffffffffffffffffffff16826040516103f590610bda565b60006040518083038185875af1925050503d8060008114610432576040519150601f19603f3d011682016040523d82523d6000602084013e610437565b606091505b505090508061047b576040517f08c379a000000000000000000000000000000000000000000000000000000000815260040161047290610cd3565b60405180910390fd5b50505b3373ffffffffffffffffffffffffffffffffffffffff167f5f7e16dc676677766a70e9c5628aa6c54ddb8b6e5188e2ae1e1f17f1ffbea71642836040516104c6929190610d0e565b60405180910390a250565b60036020528060005260406000206000915090505481565b60008054905090565b60606002805480602002602001604051908101604052809291908181526020016000905b8282101561063a57838290600052602060002090600302016040518060600160405290816000820160009054906101000a900473ffffffffffffffffffffffffffffffffffffffff1673ffffffffffffffffffffffffffffffffffffffff1673ffffffffffffffffffffffffffffffffffffffff168152602001600182015481526020016002820180546105a990610ed9565b80601f01602080910402602001604051908101604052809291908181526020018280546105d590610ed9565b80156106225780601f106105f757610100808354040283529160200191610622565b820191906000526020600020905b81548152906001019060200180831161060557829003601f168201915b50505050508152505081526020019060010190610516565b50505050905090565b6106d9816040516024016106579190610c11565b6040516020818303038152906040527f41304fac000000000000000000000000000000000000000000000000000000007bffffffffffffffffffffffffffffffffffffffffffffffffffffffff19166020820180517bffffffffffffffffffffffffffffffffffffffffffffffffffffffff8381831617835250505050610814565b50565b61077482826040516024016106f2929190610c33565b6040516020818303038152906040527f319af333000000000000000000000000000000000000000000000000000000007bffffffffffffffffffffffffffffffffffffffffffffffffffffffff19166020820180517bffffffffffffffffffffffffffffffffffffffffffffffffffffffff8381831617835250505050610814565b5050565b610810828260405160240161078e929190610c63565b6040516020818303038152906040527f9710a9d0000000000000000000000000000000000000000000000000000000007bffffffffffffffffffffffffffffffffffffffffffffffffffffffff19166020820180517bffffffffffffffffffffffffffffffffffffffffffffffffffffffff8381831617835250505050610814565b5050565b60008151905060006a636f6e736f6c652e6c6f679050602083016000808483855afa5050505050565b82805461084990610ed9565b90600052602060002090601f01602090048101928261086b57600085556108b2565b82601f1061088457805160ff19168380011785556108b2565b828001600101855582156108b2579182015b828111156108b1578251825591602001919060010190610896565b5b5090506108bf91906108c3565b5090565b5b808211156108dc5760008160009055506001016108c4565b5090565b60006108f36108ee84610d63565b610d3e565b90508281526020810184848401111561090b57600080fd5b610916848285610e97565b509392505050565b60008135905061092d816110b8565b92915050565b600082601f83011261094457600080fd5b81356109548482602086016108e0565b91505092915050565b60006020828403121561096f57600080fd5b600061097d8482850161091e565b91505092915050565b60006020828403121561099857600080fd5b600082013567ffffffffffffffff8111156109b257600080fd5b6109be84828501610933565b91505092915050565b60006109d38383610b6c565b905092915050565b6109e481610e5b565b82525050565b6109f381610e5b565b82525050565b6000610a0482610da4565b610a0e8185610dc7565b935083602082028501610a2085610d94565b8060005b85811015610a5c5784840389528151610a3d85826109c7565b9450610a4883610dba565b925060208a01995050600181019050610a24565b50829750879550505050505092915050565b6000610a7982610daf565b610a838185610de3565b9350610a93818560208601610ea6565b610a9c81611029565b840191505092915050565b6000610ab282610daf565b610abc8185610df4565b9350610acc818560208601610ea6565b610ad581611029565b840191505092915050565b6000610aed601e83610df4565b9150610af88261103a565b602082019050919050565b6000610b10600083610dd8565b9150610b1b82611063565b600082019050919050565b6000610b33601a83610df4565b9150610b3e82611066565b602082019050919050565b6000610b56601f83610df4565b9150610b618261108f565b602082019050919050565b6000606083016000830151610b8460008601826109db565b506020830151610b976020860182610bbc565b5060408301518482036040860152610baf8282610a6e565b9150508091505092915050565b610bc581610e8d565b82525050565b610bd481610e8d565b82525050565b6000610be582610b03565b9150819050919050565b60006020820190508181036000830152610c0981846109f9565b905092915050565b60006020820190508181036000830152610c2b8184610aa7565b905092915050565b60006040820190508181036000830152610c4d8185610aa7565b9050610c5c60208301846109ea565b9392505050565b60006040820190508181036000830152610c7d8185610aa7565b9050610c8c6020830184610bcb565b9392505050565b60006020820190508181036000830152610cac81610ae0565b9050919050565b60006020820190508181036000830152610ccc81610b26565b9050919050565b60006020820190508181036000830152610cec81610b49565b9050919050565b6000602082019050610d086000830184610bcb565b92915050565b6000604082019050610d236000830185610bcb565b8181036020830152610d358184610aa7565b90509392505050565b6000610d48610d59565b9050610d548282610f0b565b919050565b6000604051905090565b600067ffffffffffffffff821115610d7e57610d7d610ffa565b5b610d8782611029565b9050602081019050919050565b6000819050602082019050919050565b600081519050919050565b600081519050919050565b6000602082019050919050565b600082825260208201905092915050565b600081905092915050565b600082825260208201905092915050565b600082825260208201905092915050565b6000610e1082610e8d565b9150610e1b83610e8d565b9250827fffffffffffffffffffffffffffffffffffffffffffffffffffffffffffffffff03821115610e5057610e4f610f6d565b5b828201905092915050565b6000610e6682610e6d565b9050919050565b600073ffffffffffffffffffffffffffffffffffffffff82169050919050565b6000819050919050565b82818337600083830152505050565b60005b83811015610ec4578082015181840152602081019050610ea9565b83811115610ed3576000848401525b50505050565b60006002820490506001821680610ef157607f821691505b60208210811415610f0557610f04610fcb565b5b50919050565b610f1482611029565b810181811067ffffffffffffffff82111715610f3357610f32610ffa565b5b80604052505050565b6000610f4782610e8d565b9150610f5283610e8d565b925082610f6257610f61610f9c565b5b828206905092915050565b7f4e487b7100000000000000000000000000000000000000000000000000000000600052601160045260246000fd5b7f4e487b7100000000000000000000000000000000000000000000000000000000600052601260045260246000fd5b7f4e487b7100000000000000000000000000000000000000000000000000000000600052602260045260246000fd5b7f4e487b7100000000000000000000000000000000000000000000000000000000600052604160045260246000fd5b6000601f19601f8301169050919050565b7f5761697420666f7220302e356d696e20746f207761766520616761696e210000600082015250565b50565b7f4e6f7420656e6f7567682065746865727320746f2073656e6421000000000000600082015250565b7f496e73756666696369656e742065746865727320746f20776974686472617700600082015250565b6110c181610e5b565b81146110cc57600080fd5b5056fea2646970667358221220344d07e087614d4bc291b6e8661ad0606e2f36da9c727db55f7571b2d3433c8e64736f6c634300080400332e2e2e497427732074696d6520746f20777269746520736f6d652066616e637920636f6e747261637473206c696b652074686520736d6172742070656f706c65207765206172652e2e2e",
  "linkReferences": {},
  "deployedLinkReferences": {}
}