{
  "_format": "hh-sol-artifact-1",
  "contractName": "WavePortal",
  "sourceName": "contracts/WavePortal.sol",
  "abi": [
    {
      "inputs": [],
      "stateMutability": "payable",
      "type": "constructor"
    },
    {
      "anonymous": false,
      "inputs": [
        {
          "indexed": true,
          "internalType": "address",
          "name": "from",
          "type": "address"
        },
        {
          "indexed": false,
          "internalType": "uint256",
          "name": "timestamp",
          "type": "uint256"
        },
        {
          "indexed": false,
          "internalType": "string",
          "name": "message",
          "type": "string"
        }
      ],
      "name": "NewWave",
      "type": "event"
    },
    {
      "inputs": [],
      "name": "getAllWaves",
      "outputs": [
        {
          "components": [
            {
              "internalType": "address",
              "name": "senderAddress",
              "type": "address"
            },
            {
              "internalType": "uint256",
              "name": "timestamp",
              "type": "uint256"
            },
            {
              "internalType": "string",
              "name": "message",
              "type": "string"
            }
          ],
          "internalType": "struct WavePortal.Wave[]",
          "name": "",
          "type": "tuple[]"
        }
      ],
      "stateMutability": "view",
      "type": "function"
    },
    {
      "inputs": [],
      "name": "getTotalWaves",
      "outputs": [
        {
          "internalType": "uint256",
          "name": "",
          "type": "uint256"
        }
      ],
      "stateMutability": "view",
      "type": "function"
    },
    {
      "inputs": [
        {
          "internalType": "address",
          "name": "",
          "type": "address"
        }
      ],
      "name": "lastSeenAt",
      "outputs": [
        {
          "internalType": "uint256",
          "name": "",
          "type": "uint256"
        }
      ],
      "stateMutability": "view",
      "type": "function"
    },
    {
      "inputs": [
        {
          "internalType": "string",
          "name": "_message",
          "type": "string"
        }
      ],
      "name": "wave",
      "outputs": [],
      "stateMutability": "nonpayable",
      "type": "function"
    }
  ],
  "bytecode": "0x6080604052620000336040518060800160405280604a815260200162001403604a91396200005b60201b620006451760201c565b60644442620000439190620001a8565b6200004f919062000245565b600181905550620002ec565b620000fb8160405160240162000072919062000168565b6040516020818303038152906040527f41304fac000000000000000000000000000000000000000000000000000000007bffffffffffffffffffffffffffffffffffffffffffffffffffffffff19166020820180517bffffffffffffffffffffffffffffffffffffffffffffffffffffffff8381831617835250505050620000fe60201b60201c565b50565b60008151905060006a636f6e736f6c652e6c6f679050602083016000808483855afa5050505050565b600062000134826200018c565b62000140818562000197565b9350620001528185602086016200020f565b6200015d81620002db565b840191505092915050565b6000602082019050818103600083015262000184818462000127565b905092915050565b600081519050919050565b600082825260208201905092915050565b6000620001b58262000205565b9150620001c28362000205565b9250827fffffffffffffffffffffffffffffffffffffffffffffffffffffffffffffffff03821115620001fa57620001f96200027d565b5b828201905092915050565b6000819050919050565b60005b838110156200022f57808201518184015260208101905062000212565b838111156200023f576000848401525b50505050565b6000620002528262000205565b91506200025f8362000205565b925082620002725762000271620002ac565b5b828206905092915050565b7f4e487b7100000000000000000000000000000000000000000000000000000000600052601160045260246000fd5b7f4e487b7100000000000000000000000000000000000000000000000000000000600052601260045260246000fd5b6000601f19601f8301169050919050565b61110780620002fc6000396000f3fe608060405234801561001057600080fd5b506004361061004c5760003560e01c8063449d46c01461005157806373895bf71461006d5780639a2cdc081461009d578063bd43a908146100bb575b600080fd5b61006b60048036038101906100669190610988565b6100d9565b005b6100876004803603810190610082919061095f565b6104d3565b6040516100949190610cf5565b60405180910390f35b6100a56104eb565b6040516100b29190610cf5565b60405180910390f35b6100c36104f4565b6040516100d09190610bf1565b60405180910390f35b4261012c600360003373ffffffffffffffffffffffffffffffffffffffff1673ffffffffffffffffffffffffffffffffffffffff168152602001908152602001600020546101279190610e07565b10610167576040517f08c379a000000000000000000000000000000000000000000000000000000000815260040161015e90610cd5565b60405180910390fd5b42600360003373ffffffffffffffffffffffffffffffffffffffff1673ffffffffffffffffffffffffffffffffffffffff1681526020019081526020016000208190555060016000808282546101bd9190610e07565b925050819055506102036040518060400160405280601481526020017f25732068617320776176656420617420796f7520000000000000000000000000815250336106de565b600260405180606001604052803373ffffffffffffffffffffffffffffffffffffffff16815260200142815260200183815250908060018154018082558091505060019003906000526020600020906003020160009091909190915060008201518160000160006101000a81548173ffffffffffffffffffffffffffffffffffffffff021916908373ffffffffffffffffffffffffffffffffffffffff1602179055506020820151816001015560408201518160020190805190602001906102cc92919061083f565b505050606460015442446102e09190610e07565b6102ea9190610e07565b6102f49190610f3e565b60018190555061033b6040518060400160405280600e81526020017f47656e6572617465642023203d3e00000000000000000000000000000000000081525060015461077a565b603260015411610480576103846040518060400160405280601581526020017f5468697320257320776f6e20746865207072697a650000000000000000000000815250336106de565b60006402540be4009050478111156103d1576040517f08c379a00000000000000000000000000000000000000000000000000000000081526004016103c890610c95565b60405180910390fd5b60003373ffffffffffffffffffffffffffffffffffffffff16826040516103f790610bdc565b60006040518083038185875af1925050503d8060008114610434576040519150601f19603f3d011682016040523d82523d6000602084013e610439565b606091505b505090508061047d576040517f08c379a000000000000000000000000000000000000000000000000000000000815260040161047490610cb5565b60405180910390fd5b50505b3373ffffffffffffffffffffffffffffffffffffffff167f5f7e16dc676677766a70e9c5628aa6c54ddb8b6e5188e2ae1e1f17f1ffbea71642836040516104c8929190610d10565b60405180910390a250565b60036020528060005260406000206000915090505481565b60008054905090565b60606002805480602002602001604051908101604052809291908181526020016000905b8282101561063c57838290600052602060002090600302016040518060600160405290816000820160009054906101000a900473ffffffffffffffffffffffffffffffffffffffff1673ffffffffffffffffffffffffffffffffffffffff1673ffffffffffffffffffffffffffffffffffffffff168152602001600182015481526020016002820180546105ab90610edb565b80601f01602080910402602001604051908101604052809291908181526020018280546105d790610edb565b80156106245780601f106105f957610100808354040283529160200191610624565b820191906000526020600020905b81548152906001019060200180831161060757829003601f168201915b50505050508152505081526020019060010190610518565b50505050905090565b6106db816040516024016106599190610c13565b6040516020818303038152906040527f41304fac000000000000000000000000000000000000000000000000000000007bffffffffffffffffffffffffffffffffffffffffffffffffffffffff19166020820180517bffffffffffffffffffffffffffffffffffffffffffffffffffffffff8381831617835250505050610816565b50565b61077682826040516024016106f4929190610c35565b6040516020818303038152906040527f319af333000000000000000000000000000000000000000000000000000000007bffffffffffffffffffffffffffffffffffffffffffffffffffffffff19166020820180517bffffffffffffffffffffffffffffffffffffffffffffffffffffffff8381831617835250505050610816565b5050565b6108128282604051602401610790929190610c65565b6040516020818303038152906040527f9710a9d0000000000000000000000000000000000000000000000000000000007bffffffffffffffffffffffffffffffffffffffffffffffffffffffff19166020820180517bffffffffffffffffffffffffffffffffffffffffffffffffffffffff8381831617835250505050610816565b5050565b60008151905060006a636f6e736f6c652e6c6f679050602083016000808483855afa5050505050565b82805461084b90610edb565b90600052602060002090601f01602090048101928261086d57600085556108b4565b82601f1061088657805160ff19168380011785556108b4565b828001600101855582156108b4579182015b828111156108b3578251825591602001919060010190610898565b5b5090506108c191906108c5565b5090565b5b808211156108de5760008160009055506001016108c6565b5090565b60006108f56108f084610d65565b610d40565b90508281526020810184848401111561090d57600080fd5b610918848285610e99565b509392505050565b60008135905061092f816110ba565b92915050565b600082601f83011261094657600080fd5b81356109568482602086016108e2565b91505092915050565b60006020828403121561097157600080fd5b600061097f84828501610920565b91505092915050565b60006020828403121561099a57600080fd5b600082013567ffffffffffffffff8111156109b457600080fd5b6109c084828501610935565b91505092915050565b60006109d58383610b6e565b905092915050565b6109e681610e5d565b82525050565b6109f581610e5d565b82525050565b6000610a0682610da6565b610a108185610dc9565b935083602082028501610a2285610d96565b8060005b85811015610a5e5784840389528151610a3f85826109c9565b9450610a4a83610dbc565b925060208a01995050600181019050610a26565b50829750879550505050505092915050565b6000610a7b82610db1565b610a858185610de5565b9350610a95818560208601610ea8565b610a9e8161102b565b840191505092915050565b6000610ab482610db1565b610abe8185610df6565b9350610ace818560208601610ea8565b610ad78161102b565b840191505092915050565b6000610aef600083610dda565b9150610afa8261103c565b600082019050919050565b6000610b12601a83610df6565b9150610b1d8261103f565b602082019050919050565b6000610b35601f83610df6565b9150610b4082611068565b602082019050919050565b6000610b58601c83610df6565b9150610b6382611091565b602082019050919050565b6000606083016000830151610b8660008601826109dd565b506020830151610b996020860182610bbe565b5060408301518482036040860152610bb18282610a70565b9150508091505092915050565b610bc781610e8f565b82525050565b610bd681610e8f565b82525050565b6000610be782610ae2565b9150819050919050565b60006020820190508181036000830152610c0b81846109fb565b905092915050565b60006020820190508181036000830152610c2d8184610aa9565b905092915050565b60006040820190508181036000830152610c4f8185610aa9565b9050610c5e60208301846109ec565b9392505050565b60006040820190508181036000830152610c7f8185610aa9565b9050610c8e6020830184610bcd565b9392505050565b60006020820190508181036000830152610cae81610b05565b9050919050565b60006020820190508181036000830152610cce81610b28565b9050919050565b60006020820190508181036000830152610cee81610b4b565b9050919050565b6000602082019050610d0a6000830184610bcd565b92915050565b6000604082019050610d256000830185610bcd565b8181036020830152610d378184610aa9565b90509392505050565b6000610d4a610d5b565b9050610d568282610f0d565b919050565b6000604051905090565b600067ffffffffffffffff821115610d8057610d7f610ffc565b5b610d898261102b565b9050602081019050919050565b6000819050602082019050919050565b600081519050919050565b600081519050919050565b6000602082019050919050565b600082825260208201905092915050565b600081905092915050565b600082825260208201905092915050565b600082825260208201905092915050565b6000610e1282610e8f565b9150610e1d83610e8f565b9250827fffffffffffffffffffffffffffffffffffffffffffffffffffffffffffffffff03821115610e5257610e51610f6f565b5b828201905092915050565b6000610e6882610e6f565b9050919050565b600073ffffffffffffffffffffffffffffffffffffffff82169050919050565b6000819050919050565b82818337600083830152505050565b60005b83811015610ec6578082015181840152602081019050610eab565b83811115610ed5576000848401525b50505050565b60006002820490506001821680610ef357607f821691505b60208210811415610f0757610f06610fcd565b5b50919050565b610f168261102b565b810181811067ffffffffffffffff82111715610f3557610f34610ffc565b5b80604052505050565b6000610f4982610e8f565b9150610f5483610e8f565b925082610f6457610f63610f9e565b5b828206905092915050565b7f4e487b7100000000000000000000000000000000000000000000000000000000600052601160045260246000fd5b7f4e487b7100000000000000000000000000000000000000000000000000000000600052601260045260246000fd5b7f4e487b7100000000000000000000000000000000000000000000000000000000600052602260045260246000fd5b7f4e487b7100000000000000000000000000000000000000000000000000000000600052604160045260246000fd5b6000601f19601f8301169050919050565b50565b7f4e6f7420656e6f7567682065746865727320746f2073656e6421000000000000600082015250565b7f496e73756666696369656e742065746865727320746f20776974686472617700600082015250565b7f5761697420666f7220356d696e20746f207761766520616761696e2100000000600082015250565b6110c381610e5d565b81146110ce57600080fd5b5056fea2646970667358221220a8ced46a6a46dd7a7b97e6c6157ff8f23e8a2b76957ab3d2b46495abd6c9091064736f6c634300080400332e2e2e497427732074696d6520746f20777269746520736f6d652066616e637920636f6e747261637473206c696b652074686520736d6172742070656f706c65207765206172652e2e2e",
  "linkReferences": {},
  "deployedLinkReferences": {}
}